{
  "_format": "hh-sol-artifact-1",
  "contractName": "PaymentProcessor",
  "sourceName": "contracts/PaymentProcessor.sol",
  "abi": [
    {
      "inputs": [
        {
          "internalType": "address",
          "name": "_feeCollector",
          "type": "address"
        }
      ],
      "stateMutability": "nonpayable",
      "type": "constructor"
    },
    {
      "inputs": [
        {
          "internalType": "address",
          "name": "owner",
          "type": "address"
        }
      ],
      "name": "OwnableInvalidOwner",
      "type": "error"
    },
    {
      "inputs": [
        {
          "internalType": "address",
          "name": "account",
          "type": "address"
        }
      ],
      "name": "OwnableUnauthorizedAccount",
      "type": "error"
    },
    {
      "inputs": [],
      "name": "ReentrancyGuardReentrantCall",
      "type": "error"
    },
    {
      "inputs": [
        {
          "internalType": "address",
          "name": "token",
          "type": "address"
        }
      ],
      "name": "SafeERC20FailedOperation",
      "type": "error"
    },
    {
      "anonymous": false,
      "inputs": [
        {
          "indexed": true,
          "internalType": "bytes32",
          "name": "escrowId",
          "type": "bytes32"
        },
        {
          "indexed": true,
          "internalType": "address",
          "name": "payer",
          "type": "address"
        },
        {
          "indexed": true,
          "internalType": "address",
          "name": "payee",
          "type": "address"
        },
        {
          "indexed": false,
          "internalType": "uint256",
          "name": "amount",
          "type": "uint256"
        },
        {
          "indexed": false,
          "internalType": "uint256",
          "name": "releaseTime",
          "type": "uint256"
        }
      ],
      "name": "EscrowCreated",
      "type": "event"
    },
    {
      "anonymous": false,
      "inputs": [
        {
          "indexed": true,
          "internalType": "bytes32",
          "name": "escrowId",
          "type": "bytes32"
        },
        {
          "indexed": true,
          "internalType": "address",
          "name": "payer",
          "type": "address"
        },
        {
          "indexed": false,
          "internalType": "uint256",
          "name": "amount",
          "type": "uint256"
        }
      ],
      "name": "EscrowRefunded",
      "type": "event"
    },
    {
      "anonymous": false,
      "inputs": [
        {
          "indexed": true,
          "internalType": "bytes32",
          "name": "escrowId",
          "type": "bytes32"
        },
        {
          "indexed": true,
          "internalType": "address",
          "name": "payee",
          "type": "address"
        },
        {
          "indexed": false,
          "internalType": "uint256",
          "name": "amount",
          "type": "uint256"
        }
      ],
      "name": "EscrowReleased",
      "type": "event"
    },
    {
      "anonymous": false,
      "inputs": [
        {
          "indexed": true,
          "internalType": "address",
          "name": "previousOwner",
          "type": "address"
        },
        {
          "indexed": true,
          "internalType": "address",
          "name": "newOwner",
          "type": "address"
        }
      ],
      "name": "OwnershipTransferred",
      "type": "event"
    },
    {
      "anonymous": false,
      "inputs": [
        {
          "indexed": true,
          "internalType": "bytes32",
          "name": "paymentId",
          "type": "bytes32"
        },
        {
          "indexed": true,
          "internalType": "address",
          "name": "payer",
          "type": "address"
        },
        {
          "indexed": true,
          "internalType": "address",
          "name": "payee",
          "type": "address"
        },
        {
          "indexed": false,
          "internalType": "uint256",
          "name": "amount",
          "type": "uint256"
        },
        {
          "indexed": false,
          "internalType": "address",
          "name": "token",
          "type": "address"
        }
      ],
      "name": "PaymentProcessed",
      "type": "event"
    },
    {
      "anonymous": false,
      "inputs": [
        {
          "indexed": true,
          "internalType": "bytes32",
          "name": "paymentId",
          "type": "bytes32"
        },
        {
          "indexed": true,
          "internalType": "address",
          "name": "payer",
          "type": "address"
        },
        {
          "indexed": false,
          "internalType": "uint256",
          "name": "amount",
          "type": "uint256"
        }
      ],
      "name": "PaymentRefunded",
      "type": "event"
    },
    {
      "anonymous": false,
      "inputs": [
        {
          "indexed": false,
          "internalType": "uint256",
          "name": "newFee",
          "type": "uint256"
        }
      ],
      "name": "PlatformFeeUpdated",
      "type": "event"
    },
    {
      "inputs": [],
      "name": "FEE_DENOMINATOR",
      "outputs": [
        {
          "internalType": "uint256",
          "name": "",
          "type": "uint256"
        }
      ],
      "stateMutability": "view",
      "type": "function"
    },
    {
      "inputs": [
        {
          "internalType": "address",
          "name": "payee",
          "type": "address"
        },
        {
          "internalType": "address",
          "name": "token",
          "type": "address"
        },
        {
          "internalType": "uint256",
          "name": "amount",
          "type": "uint256"
        },
        {
          "internalType": "uint256",
          "name": "releaseTime",
          "type": "uint256"
        },
        {
          "internalType": "string",
          "name": "metadata",
          "type": "string"
        }
      ],
      "name": "createEscrow",
      "outputs": [
        {
          "internalType": "bytes32",
          "name": "",
          "type": "bytes32"
        }
      ],
      "stateMutability": "payable",
      "type": "function"
    },
    {
      "inputs": [
        {
          "internalType": "bytes32",
          "name": "",
          "type": "bytes32"
        }
      ],
      "name": "escrowPayments",
      "outputs": [
        {
          "internalType": "address",
          "name": "payer",
          "type": "address"
        },
        {
          "internalType": "address",
          "name": "payee",
          "type": "address"
        },
        {
          "internalType": "uint256",
          "name": "amount",
          "type": "uint256"
        },
        {
          "internalType": "address",
          "name": "token",
          "type": "address"
        },
        {
          "internalType": "uint256",
          "name": "releaseTime",
          "type": "uint256"
        },
        {
          "internalType": "bool",
          "name": "released",
          "type": "bool"
        },
        {
          "internalType": "bool",
          "name": "refunded",
          "type": "bool"
        },
        {
          "internalType": "string",
          "name": "metadata",
          "type": "string"
        }
      ],
      "stateMutability": "view",
      "type": "function"
    },
    {
      "inputs": [],
      "name": "feeCollector",
      "outputs": [
        {
          "internalType": "address",
          "name": "",
          "type": "address"
        }
      ],
      "stateMutability": "view",
      "type": "function"
    },
    {
      "inputs": [
        {
          "internalType": "bytes32",
          "name": "escrowId",
          "type": "bytes32"
        }
      ],
      "name": "getEscrow",
      "outputs": [
        {
          "components": [
            {
              "internalType": "address",
              "name": "payer",
              "type": "address"
            },
            {
              "internalType": "address",
              "name": "payee",
              "type": "address"
            },
            {
              "internalType": "uint256",
              "name": "amount",
              "type": "uint256"
            },
            {
              "internalType": "address",
              "name": "token",
              "type": "address"
            },
            {
              "internalType": "uint256",
              "name": "releaseTime",
              "type": "uint256"
            },
            {
              "internalType": "bool",
              "name": "released",
              "type": "bool"
            },
            {
              "internalType": "bool",
              "name": "refunded",
              "type": "bool"
            },
            {
              "internalType": "string",
              "name": "metadata",
              "type": "string"
            }
          ],
          "internalType": "struct PaymentProcessor.EscrowPayment",
          "name": "",
          "type": "tuple"
        }
      ],
      "stateMutability": "view",
      "type": "function"
    },
    {
      "inputs": [
        {
          "internalType": "bytes32",
          "name": "paymentId",
          "type": "bytes32"
        }
      ],
      "name": "getPayment",
      "outputs": [
        {
          "components": [
            {
              "internalType": "address",
              "name": "payer",
              "type": "address"
            },
            {
              "internalType": "address",
              "name": "payee",
              "type": "address"
            },
            {
              "internalType": "uint256",
              "name": "amount",
              "type": "uint256"
            },
            {
              "internalType": "address",
              "name": "token",
              "type": "address"
            },
            {
              "internalType": "uint256",
              "name": "timestamp",
              "type": "uint256"
            },
            {
              "internalType": "enum PaymentProcessor.PaymentStatus",
              "name": "status",
              "type": "uint8"
            },
            {
              "internalType": "string",
              "name": "metadata",
              "type": "string"
            }
          ],
          "internalType": "struct PaymentProcessor.Payment",
          "name": "",
          "type": "tuple"
        }
      ],
      "stateMutability": "view",
      "type": "function"
    },
    {
      "inputs": [],
      "name": "getPaymentCount",
      "outputs": [
        {
          "internalType": "uint256",
          "name": "",
          "type": "uint256"
        }
      ],
      "stateMutability": "view",
      "type": "function"
    },
    {
      "inputs": [],
      "name": "owner",
      "outputs": [
        {
          "internalType": "address",
          "name": "",
          "type": "address"
        }
      ],
      "stateMutability": "view",
      "type": "function"
    },
    {
      "inputs": [
        {
          "internalType": "uint256",
          "name": "",
          "type": "uint256"
        }
      ],
      "name": "paymentIds",
      "outputs": [
        {
          "internalType": "bytes32",
          "name": "",
          "type": "bytes32"
        }
      ],
      "stateMutability": "view",
      "type": "function"
    },
    {
      "inputs": [
        {
          "internalType": "bytes32",
          "name": "",
          "type": "bytes32"
        }
      ],
      "name": "payments",
      "outputs": [
        {
          "internalType": "address",
          "name": "payer",
          "type": "address"
        },
        {
          "internalType": "address",
          "name": "payee",
          "type": "address"
        },
        {
          "internalType": "uint256",
          "name": "amount",
          "type": "uint256"
        },
        {
          "internalType": "address",
          "name": "token",
          "type": "address"
        },
        {
          "internalType": "uint256",
          "name": "timestamp",
          "type": "uint256"
        },
        {
          "internalType": "enum PaymentProcessor.PaymentStatus",
          "name": "status",
          "type": "uint8"
        },
        {
          "internalType": "string",
          "name": "metadata",
          "type": "string"
        }
      ],
      "stateMutability": "view",
      "type": "function"
    },
    {
      "inputs": [],
      "name": "platformFee",
      "outputs": [
        {
          "internalType": "uint256",
          "name": "",
          "type": "uint256"
        }
      ],
      "stateMutability": "view",
      "type": "function"
    },
    {
      "inputs": [
        {
          "internalType": "address",
          "name": "payee",
          "type": "address"
        },
        {
          "internalType": "address",
          "name": "token",
          "type": "address"
        },
        {
          "internalType": "uint256",
          "name": "amount",
          "type": "uint256"
        },
        {
          "internalType": "string",
          "name": "metadata",
          "type": "string"
        }
      ],
      "name": "processPayment",
      "outputs": [
        {
          "internalType": "bytes32",
          "name": "",
          "type": "bytes32"
        }
      ],
      "stateMutability": "payable",
      "type": "function"
    },
    {
      "inputs": [
        {
          "internalType": "bytes32",
          "name": "escrowId",
          "type": "bytes32"
        }
      ],
      "name": "refundEscrow",
      "outputs": [],
      "stateMutability": "nonpayable",
      "type": "function"
    },
    {
      "inputs": [
        {
          "internalType": "bytes32",
          "name": "escrowId",
          "type": "bytes32"
        }
      ],
      "name": "releaseEscrow",
      "outputs": [],
      "stateMutability": "nonpayable",
      "type": "function"
    },
    {
      "inputs": [],
      "name": "renounceOwnership",
      "outputs": [],
      "stateMutability": "nonpayable",
      "type": "function"
    },
    {
      "inputs": [
        {
          "internalType": "address[]",
          "name": "recipients",
          "type": "address[]"
        },
        {
          "internalType": "uint256[]",
          "name": "amounts",
          "type": "uint256[]"
        },
        {
          "internalType": "address",
          "name": "token",
          "type": "address"
        },
        {
          "internalType": "string",
          "name": "metadata",
          "type": "string"
        }
      ],
      "name": "splitPayment",
      "outputs": [
        {
          "internalType": "bytes32",
          "name": "",
          "type": "bytes32"
        }
      ],
      "stateMutability": "payable",
      "type": "function"
    },
    {
      "inputs": [
        {
          "internalType": "address",
          "name": "",
          "type": "address"
        }
      ],
      "name": "totalReceived",
      "outputs": [
        {
          "internalType": "uint256",
          "name": "",
          "type": "uint256"
        }
      ],
      "stateMutability": "view",
      "type": "function"
    },
    {
      "inputs": [
        {
          "internalType": "address",
          "name": "",
          "type": "address"
        }
      ],
      "name": "totalSent",
      "outputs": [
        {
          "internalType": "uint256",
          "name": "",
          "type": "uint256"
        }
      ],
      "stateMutability": "view",
      "type": "function"
    },
    {
      "inputs": [
        {
          "internalType": "address",
          "name": "newOwner",
          "type": "address"
        }
      ],
      "name": "transferOwnership",
      "outputs": [],
      "stateMutability": "nonpayable",
      "type": "function"
    },
    {
      "inputs": [
        {
          "internalType": "address",
          "name": "newCollector",
          "type": "address"
        }
      ],
      "name": "updateFeeCollector",
      "outputs": [],
      "stateMutability": "nonpayable",
      "type": "function"
    },
    {
      "inputs": [
        {
          "internalType": "uint256",
          "name": "newFee",
          "type": "uint256"
        }
      ],
      "name": "updatePlatformFee",
      "outputs": [],
      "stateMutability": "nonpayable",
      "type": "function"
    },
    {
      "stateMutability": "payable",
      "type": "receive"
    }
  ],
  "bytecode": "0x608060405260196007553480156200001657600080fd5b506040516200259f3803806200259f8339810160408190526200003991620000e9565b600160005533806200006557604051631e4fbdf760e01b81526000600482015260240160405180910390fd5b620000708162000097565b50600880546001600160a01b0319166001600160a01b03929092169190911790556200011b565b600180546001600160a01b038381166001600160a01b0319831681179093556040519116919082907f8be0079c531659141344cd1fd0a4f28419497f9722a3daafe3b4186f6b6457e090600090a35050565b600060208284031215620000fc57600080fd5b81516001600160a01b03811681146200011457600080fd5b9392505050565b612474806200012b6000396000f3fe60806040526004361061012e5760003560e01c8063af32a03f116100ab578063d2c35ce81161006f578063d2c35ce81461034c578063d73792a91461036c578063e10aebab14610382578063e66eefc814610395578063f023b811146103c2578063f2fde38b146103ef57600080fd5b8063af32a03f146102d1578063bbe96b00146102e6578063bf89fc61146102f9578063c415b95c14610319578063d27dc2db1461033957600080fd5b80634df9cfb3116100f25780634df9cfb31461021d578063715018a61461024a5780638da5cb5b1461025f5780639ba6737c14610291578063aa0b5988146102b157600080fd5b80630716326d1461013a57806308f81a931461017657806326232a2e146101b15780633de0e210146101c757806347aed508146101fb57600080fd5b3661013557005b600080fd5b34801561014657600080fd5b5061015a610155366004611c77565b61040f565b60405161016d9796959493929190611d0e565b60405180910390f35b34801561018257600080fd5b506101a3610191366004611d84565b60056020526000908152604090205481565b60405190815260200161016d565b3480156101bd57600080fd5b506101a360075481565b3480156101d357600080fd5b506101e76101e2366004611c77565b6104ea565b60405161016d989796959493929190611da6565b34801561020757600080fd5b5061021b610216366004611c77565b6105cf565b005b34801561022957600080fd5b506101a3610238366004611d84565b60046020526000908152604090205481565b34801561025657600080fd5b5061021b6107de565b34801561026b57600080fd5b506001546001600160a01b03165b6040516001600160a01b03909116815260200161016d565b34801561029d57600080fd5b506101a36102ac366004611c77565b6107f2565b3480156102bd57600080fd5b5061021b6102cc366004611c77565b610813565b3480156102dd57600080fd5b506006546101a3565b6101a36102f4366004611e51565b610897565b34801561030557600080fd5b5061021b610314366004611c77565b610d1f565b34801561032557600080fd5b50600854610279906001600160a01b031681565b6101a3610347366004611ec0565b610fe2565b34801561035857600080fd5b5061021b610367366004611d84565b611321565b34801561037857600080fd5b506101a361271081565b6101a3610390366004611f7d565b611393565b3480156103a157600080fd5b506103b56103b0366004611c77565b611841565b60405161016d919061202b565b3480156103ce57600080fd5b506103e26103dd366004611c77565b6119ab565b60405161016d91906120a2565b3480156103fb57600080fd5b5061021b61040a366004611d84565b611a7f565b600260208190526000918252604090912080546001820154928201546003830154600484015460058501546006860180546001600160a01b0396871698871697959690941694929360ff909216929161046790612130565b80601f016020809104026020016040519081016040528092919081815260200182805461049390612130565b80156104e05780601f106104b5576101008083540402835291602001916104e0565b820191906000526020600020905b8154815290600101906020018083116104c357829003601f168201915b5050505050905087565b600360208190526000918252604090912080546001820154600283015493830154600484015460058501546006860180546001600160a01b039687169895871697959690941694929360ff808416946101009094041692919061054c90612130565b80601f016020809104026020016040519081016040528092919081815260200182805461057890612130565b80156105c55780601f1061059a576101008083540402835291602001916105c5565b820191906000526020600020905b8154815290600101906020018083116105a857829003601f168201915b5050505050905088565b6105d7611aba565b6000818152600360205260409020600581015460ff1615801561060457506005810154610100900460ff16155b6106505760405162461bcd60e51b8152602060048201526018602482015277115cd8dc9bddc8185b1c9958591e481c1c9bd8d95cdcd95960421b60448201526064015b60405180910390fd5b80546001600160a01b031633146106a15760405162461bcd60e51b815260206004820152601560248201527413db9b1e481c185e595c8818d85b881c99599d5b99605a1b6044820152606401610647565b60058101805461ff00191661010017905560038101546001600160a01b031661076457805460028201546040516000926001600160a01b031691908381818185875af1925050503d8060008114610714576040519150601f19603f3d011682016040523d82523d6000602084013e610719565b606091505b505090508061075e5760405162461bcd60e51b8152602060048201526011602482015270115512081c99599d5b990819985a5b1959607a1b6044820152606401610647565b50610788565b805460028201546003830154610788926001600160a01b0391821692911690611ae4565b805460028201546040519081526001600160a01b039091169083907ffc31a7ddbe933aa6e67f3c98c183fbc87addd2b602fcfb10238d2f85cf0266179060200160405180910390a3506107db6001600055565b50565b6107e6611b48565b6107f06000611b75565b565b6006818154811061080257600080fd5b600091825260209091200154905081565b61081b611b48565b6101f481111561085c5760405162461bcd60e51b815260206004820152600c60248201526b08ccaca40e8dede40d0d2ced60a31b6044820152606401610647565b60078190556040518181527f45610d581145924dd7090a5017e5f2b1d6f42213bb2e95707ff86846bbfcb1ca9060200160405180910390a150565b60006108a1611aba565b6001600160a01b0386166108e75760405162461bcd60e51b815260206004820152600d60248201526c496e76616c696420706179656560981b6044820152606401610647565b600084116109375760405162461bcd60e51b815260206004820152601d60248201527f416d6f756e74206d7573742062652067726561746572207468616e20300000006044820152606401610647565b6006546040516bffffffffffffffffffffffff1933606090811b8216602084015289901b16603482015260488101869052426068820152608881019190915260009060a8016040516020818303038152906040528051906020012090506000612710600754876109a79190612180565b6109b1919061219d565b905060006109bf82886121bf565b90506001600160a01b038816610ae2578634146109ee5760405162461bcd60e51b8152600401610647906121d2565b6000896001600160a01b03168260405160006040518083038185875af1925050503d8060008114610a3b576040519150601f19603f3d011682016040523d82523d6000602084013e610a40565b606091505b5050905080610a615760405162461bcd60e51b815260040161064790612200565b8215610adc576008546040516000916001600160a01b03169085908381818185875af1925050503d8060008114610ab4576040519150601f19603f3d011682016040523d82523d6000602084013e610ab9565b606091505b5050905080610ada5760405162461bcd60e51b81526004016106479061222d565b505b50610b19565b610af76001600160a01b038916338b84611bc7565b8115610b1957600854610b19906001600160a01b038a81169133911685611bc7565b6040805160e0810182523381526001600160a01b038b81166020830152918101899052908916606082015242608082015260a081016001815260200187878080601f016020809104026020016040519081016040528093929190818152602001838380828437600092018290525093909452505085815260026020818152604092839020855181546001600160a01b039182166001600160a01b031991821617835592870151600180840180549284169286169290921790915594870151938201939093556060860151600380830180549290951691909316179092556080850151600483015560a08501516005830180549395509093909260ff1916918490811115610c2857610c28611c90565b021790555060c08201516006820190610c4190826122be565b505060068054600181019091557ff652222313e28459528d920b65115c16c04f3efc82aaedc97be59f3f377c0d3f01849055503360009081526005602052604081208054899290610c9390849061237e565b90915550506001600160a01b03891660009081526004602052604081208054899290610cc090849061237e565b9091555050604080518881526001600160a01b038a811660208301528b1691339186917feb016be7c31b2538e4e9e530312c74bcf08dd3665d188720c5565d2d44c43a93910160405180910390a4505060016000559695505050505050565b610d27611aba565b6000818152600360205260409020600581015460ff16158015610d5457506005810154610100900460ff16155b610d9b5760405162461bcd60e51b8152602060048201526018602482015277115cd8dc9bddc8185b1c9958591e481c1c9bd8d95cdcd95960421b6044820152606401610647565b80546001600160a01b0316331480610db7575080600401544210155b610df85760405162461bcd60e51b815260206004820152601260248201527110d85b9b9bdd081c995b19585cd9481e595d60721b6044820152606401610647565b60058101805460ff19166001179055600754600282015460009161271091610e209190612180565b610e2a919061219d565b90506000818360020154610e3e91906121bf565b60038401549091506001600160a01b0316610f495760018301546040516000916001600160a01b03169083908381818185875af1925050503d8060008114610ea2576040519150601f19603f3d011682016040523d82523d6000602084013e610ea7565b606091505b5050905080610ec85760405162461bcd60e51b815260040161064790612200565b8215610f43576008546040516000916001600160a01b03169085908381818185875af1925050503d8060008114610f1b576040519150601f19603f3d011682016040523d82523d6000602084013e610f20565b606091505b5050905080610f415760405162461bcd60e51b81526004016106479061222d565b505b50610f8f565b60018301546003840154610f6a916001600160a01b03918216911683611ae4565b8115610f8f576008546003840154610f8f916001600160a01b03918216911684611ae4565b60018301546040518281526001600160a01b039091169085907f3a9c1cd29cd3be251a72ce3c367c27dc1cb697ac4589965b76a83f9a25ca07109060200160405180910390a35050506107db6001600055565b6000610fec611aba565b6001600160a01b0387166110325760405162461bcd60e51b815260206004820152600d60248201526c496e76616c696420706179656560981b6044820152606401610647565b600085116110825760405162461bcd60e51b815260206004820152601d60248201527f416d6f756e74206d7573742062652067726561746572207468616e20300000006044820152606401610647565b4284116110d15760405162461bcd60e51b815260206004820152601e60248201527f52656c656173652074696d65206d75737420626520696e2066757475726500006044820152606401610647565b6040516bffffffffffffffffffffffff1933606090811b8216602084015289901b1660348201526048810186905242606882015265657363726f7760d01b6088820152600090608e0160408051601f19818403018152919052805160209091012090506001600160a01b038716611166578534146111615760405162461bcd60e51b8152600401610647906121d2565b61117b565b61117b6001600160a01b038816333089611bc7565b604051806101000160405280336001600160a01b03168152602001896001600160a01b03168152602001878152602001886001600160a01b0316815260200186815260200160001515815260200160001515815260200185858080601f016020809104026020016040519081016040528093929190818152602001838380828437600092018290525093909452505083815260036020818152604092839020855181546001600160a01b039182166001600160a01b031991821617835592870151600183018054918316918516919091179055938601516002820155606086015192810180549390941692909116919091179091556080830151600482015560a083015160058201805460c086015115156101000261ff00199315159390931661ffff199091161791909117905560e083015190915060068201906112c090826122be565b505060408051888152602081018890526001600160a01b038b169250339184917f8233ac661360194ba2d16fa02d354d092808769225032c46dc5787f33af21cbe910160405180910390a490506113176001600055565b9695505050505050565b611329611b48565b6001600160a01b0381166113715760405162461bcd60e51b815260206004820152600f60248201526e496e76616c6964206164647265737360881b6044820152606401610647565b600880546001600160a01b0319166001600160a01b0392909216919091179055565b600061139d611aba565b8685146113e55760405162461bcd60e51b8152602060048201526016602482015275082e4e4c2f2e640d8cadccee8d040dad2e6dac2e8c6d60531b6044820152606401610647565b866114225760405162461bcd60e51b815260206004820152600d60248201526c4e6f20726563697069656e747360981b6044820152606401610647565b6000805b868110156114665787878281811061144057611440612391565b9050602002013582611452919061237e565b91508061145e816123a7565b915050611426565b506001600160a01b038516611494578034146114945760405162461bcd60e51b8152600401610647906121d2565b6000338a8a8a8a426040516020016114b1969594939291906123c0565b60405160208183030381529060405280519060200120905060005b898110156117bc5760008b8b838181106114e8576114e8612391565b90506020020160208101906114fd9190611d84565b6001600160a01b0316036115475760405162461bcd60e51b8152602060048201526011602482015270125b9d985b1a59081c9958da5c1a595b9d607a1b6044820152606401610647565b60006127106007548b8b8581811061156157611561612391565b905060200201356115729190612180565b61157c919061219d565b90506000818b8b8581811061159357611593612391565b905060200201356115a491906121bf565b90506001600160a01b0389166116ce5760008d8d858181106115c8576115c8612391565b90506020020160208101906115dd9190611d84565b6001600160a01b03168260405160006040518083038185875af1925050503d8060008114611627576040519150601f19603f3d011682016040523d82523d6000602084013e61162c565b606091505b505090508061164d5760405162461bcd60e51b815260040161064790612200565b82156116c8576008546040516000916001600160a01b03169085908381818185875af1925050503d80600081146116a0576040519150601f19603f3d011682016040523d82523d6000602084013e6116a5565b606091505b50509050806116c65760405162461bcd60e51b81526004016106479061222d565b505b5061172d565b61170b338e8e868181106116e4576116e4612391565b90506020020160208101906116f99190611d84565b6001600160a01b038c16919084611bc7565b811561172d5760085461172d906001600160a01b038b81169133911685611bc7565b8a8a8481811061173f5761173f612391565b90506020020135600460008f8f8781811061175c5761175c612391565b90506020020160208101906117719190611d84565b6001600160a01b03166001600160a01b0316815260200190815260200160002060008282546117a0919061237e565b92505081905550505080806117b4906123a7565b9150506114cc565b5033600090815260056020526040812080548492906117dc90849061237e565b9091555050604080518381526001600160a01b0388166020820152600091339184917feb016be7c31b2538e4e9e530312c74bcf08dd3665d188720c5565d2d44c43a93910160405180910390a49150506118366001600055565b979650505050505050565b6118816040805160e08101825260008082526020820181905291810182905260608101829052608081018290529060a08201908152602001606081525090565b600082815260026020818152604092839020835160e08101855281546001600160a01b03908116825260018301548116938201939093529281015493830193909352600380840154909116606083015260048301546080830152600583015491929160a084019160ff909116908111156118fd576118fd611c90565b600381111561190e5761190e611c90565b815260200160068201805461192290612130565b80601f016020809104026020016040519081016040528092919081815260200182805461194e90612130565b801561199b5780601f106119705761010080835404028352916020019161199b565b820191906000526020600020905b81548152906001019060200180831161197e57829003601f168201915b5050505050815250509050919050565b604080516101008101825260008082526020820181905291810182905260608082018390526080820183905260a0820183905260c082019290925260e08101919091526000828152600360208181526040928390208351610100808201865282546001600160a01b039081168352600184015481169483019490945260028301549582019590955292810154909116606083015260048101546080830152600581015460ff808216151560a0850152939004909216151560c082015260068201805491929160e08401919061192290612130565b611a87611b48565b6001600160a01b038116611ab157604051631e4fbdf760e01b815260006004820152602401610647565b6107db81611b75565b600260005403611add57604051633ee5aeb560e01b815260040160405180910390fd5b6002600055565b6040516001600160a01b03838116602483015260448201839052611b4391859182169063a9059cbb906064015b604051602081830303815290604052915060e01b6020820180516001600160e01b038381831617835250505050611c06565b505050565b6001546001600160a01b031633146107f05760405163118cdaa760e01b8152336004820152602401610647565b600180546001600160a01b038381166001600160a01b0319831681179093556040519116919082907f8be0079c531659141344cd1fd0a4f28419497f9722a3daafe3b4186f6b6457e090600090a35050565b6040516001600160a01b038481166024830152838116604483015260648201839052611c009186918216906323b872dd90608401611b11565b50505050565b600080602060008451602086016000885af180611c29576040513d6000823e3d81fd5b50506000513d91508115611c41578060011415611c4e565b6001600160a01b0384163b155b15611c0057604051635274afe760e01b81526001600160a01b0385166004820152602401610647565b600060208284031215611c8957600080fd5b5035919050565b634e487b7160e01b600052602160045260246000fd5b60048110611cc457634e487b7160e01b600052602160045260246000fd5b9052565b6000815180845260005b81811015611cee57602081850181015186830182015201611cd2565b506000602082860101526020601f19601f83011685010191505092915050565b6001600160a01b03888116825287811660208301526040820187905285166060820152608081018490526000611d4760a0830185611ca6565b60e060c0830152611d5b60e0830184611cc8565b9998505050505050505050565b80356001600160a01b0381168114611d7f57600080fd5b919050565b600060208284031215611d9657600080fd5b611d9f82611d68565b9392505050565b6001600160a01b038981168252888116602083015260408201889052861660608201526080810185905283151560a082015282151560c082015261010060e08201819052600090611df983820185611cc8565b9b9a5050505050505050505050565b60008083601f840112611e1a57600080fd5b50813567ffffffffffffffff811115611e3257600080fd5b602083019150836020828501011115611e4a57600080fd5b9250929050565b600080600080600060808688031215611e6957600080fd5b611e7286611d68565b9450611e8060208701611d68565b935060408601359250606086013567ffffffffffffffff811115611ea357600080fd5b611eaf88828901611e08565b969995985093965092949392505050565b60008060008060008060a08789031215611ed957600080fd5b611ee287611d68565b9550611ef060208801611d68565b94506040870135935060608701359250608087013567ffffffffffffffff811115611f1a57600080fd5b611f2689828a01611e08565b979a9699509497509295939492505050565b60008083601f840112611f4a57600080fd5b50813567ffffffffffffffff811115611f6257600080fd5b6020830191508360208260051b8501011115611e4a57600080fd5b60008060008060008060006080888a031215611f9857600080fd5b873567ffffffffffffffff80821115611fb057600080fd5b611fbc8b838c01611f38565b909950975060208a0135915080821115611fd557600080fd5b611fe18b838c01611f38565b9097509550859150611ff560408b01611d68565b945060608a013591508082111561200b57600080fd5b506120188a828b01611e08565b989b979a50959850939692959293505050565b60208152600060018060a01b038084511660208401528060208501511660408401526040840151606084015280606085015116608084015250608083015160a083015260a083015161208060c0840182611ca6565b5060c083015160e08084015261209a610100840182611cc8565b949350505050565b60208152600060018060a01b03808451166020840152806020850151166040840152506040830151606083015260608301516120e960808401826001600160a01b03169052565b50608083015160a083015260a083015161210760c084018215159052565b5060c083015180151560e08401525060e08301516101008381015261209a610120840182611cc8565b600181811c9082168061214457607f821691505b60208210810361216457634e487b7160e01b600052602260045260246000fd5b50919050565b634e487b7160e01b600052601160045260246000fd5b80820281158282048414176121975761219761216a565b92915050565b6000826121ba57634e487b7160e01b600052601260045260246000fd5b500490565b818103818111156121975761219761216a565b602080825260149082015273125b98dbdc9c9958dd0811551208185b5bdd5b9d60621b604082015260600190565b602080825260139082015272115512081d1c985b9cd9995c8819985a5b1959606a1b604082015260600190565b602080825260139082015272119959481d1c985b9cd9995c8819985a5b1959606a1b604082015260600190565b634e487b7160e01b600052604160045260246000fd5b601f821115611b4357600081815260208120601f850160051c810160208610156122975750805b601f850160051c820191505b818110156122b6578281556001016122a3565b505050505050565b815167ffffffffffffffff8111156122d8576122d861225a565b6122ec816122e68454612130565b84612270565b602080601f83116001811461232157600084156123095750858301515b600019600386901b1c1916600185901b1785556122b6565b600085815260208120601f198616915b8281101561235057888601518255948401946001909101908401612331565b508582101561236e5787850151600019600388901b60f8161c191681555b5050505050600190811b01905550565b808201808211156121975761219761216a565b634e487b7160e01b600052603260045260246000fd5b6000600182016123b9576123b961216a565b5060010190565b6bffffffffffffffffffffffff198760601b1681526000601482018760005b8881101561240e576001600160a01b036123f883611d68565b16835260209283019291909101906001016123df565b50506001600160fb1b0385111561242457600080fd5b8460051b808783370192835250506020019594505050505056fea2646970667358221220bdd0df7c217fd60809c32c81682fddabccf0182b8d2882ccca4eef14c2a2fa1764736f6c63430008140033",
  "linkReferences": {},
  "deployedLinkReferences": {}
}